:100000000C949E020C94D6020C94D6020C94D60248
:100010000C94D6020C94D6020C94D6020C94D60200
:100020000C94D6020C94D6020C943B260C94F72523
:100030000C9438270C94D6020C94D6020C94D60259
:100040000C94D6020C94D6020C94D6020C94D602D0
:100050000C94D6020C9414270C94D6020C94D6025D
:100060000C94D6020C94D6020C94D6020C94D602B0
:100070000C94D6020C94D6020C94D6020C94D602A0
:100080000C94D6020C94D6020C94D6020C94D60290
:100090000C94D6020C94D6020C94D6020C94D60280
:1000A0000C94D6020C94D6020C94D6020501098059
:1000B000A101850319012AB700150126B700950192
:1000C00075108100C0050C0901A101850419012AE0
:1000D000A002150126A002950175108100C005013E
:1000E0000906A1018506050719E029E71500250184
:1000F0009508750181020507190029EF15002501F2
:1001000095F075018102050819012905950575010C
:100110009102950175039101C00660FF0961A1017B
:100120000962150026FF00952075088102096315F4
:100130000026FF00952075089102C005010906A15F
:1001400001050719E029E7150025019508750181CA
:10015000029501750881010507190029FF15002680
:10016000FF00950675088100050819012905950508
:1001700075019102950175039101C0FD377A585AB6
:10018000000004E6D6B44602002101160000007407
:100190002FE5A3E001D300D15D003D888986D3DC43
:1001A0000AE842C3249258425AFA4B42162C5F5432
:1001B0002BA3199BCDF09E3ED52B7388208A270256
:1001C000C28D0E008435B527B758A93B438A6A30E3
:1001D0007AB892CBBA57AB47855B749EB8FB658201
:1001E000A829B55395543E762AA33B4FF941325B7B
:1001F000C15E973A317709EC15D0F9EA34748F6211
:100200002B16F605561F4ECF8857C1A33E170D95E6
:10021000F7836FC777C98CAABD98FBB85776D9D337
:100220000F728F6723553B4A8C31EDA5BD82DAD61C
:1002300072ACA07E9B1FE76C04F9A4840575002AAC
:100240007CAF80CB2792B9920681B5983B3C1A6966
:10025000F6B7CAF3B73FF7595E5869EEF9F0FCE01C
:10026000D3E83519BA317A61945371000000002443
:10027000ACCF4D3C775F7F0001ED01D4030000A6B9
:10028000659FFFB1C467FB020000000004595A00DB
:100290000000000100060002000100060002000D3F
:1002A0000003001A0004001F000500000101010105
:1002B0000101010101020202020202020202030321
:1002C00003030303030304040404040404050505F1
:1002D00005050606060606070707070708080808B3
:1002E000090909090A0A0A0B0B0B0C0C0C0D0D0D60
:1002F0000E0E0E0F0F0F10101111111212131314F6
:1003000014151516161717181819191A1A1B1B1C6D
:100310001D1D1E1E1F2020212222232424252626C7
:10032000272829292A2B2C2D2D2E2F3031323233FC
:100330003435363738393A3B3C3D3E3F4041424305
:100340004445464748494A4C4D4E4F5051535455E9
:100350005658595A5B5D5E5F616264656668696B99
:100360006C6D6F7072737577787A7B7D7E80828317
:100370008587888A8C8E8F91939596989A9C9EA05B
:10038000A2A3A5A7A9ABADAFB1B3B5B7BABCBEC068
:10039000C2C4C6C9CBCDCFD1D4D6D8DBDDDFE2E431
:1003A000E7E9EBEEF0F3F5F8FAFDFFFA00F900A942
:1003B00000AA00240025002600550001502100223B
:1003C000002300560000001E001F0020005700AE52
:1003D000002700630054002800000009025B0003AE
:1003E0000100A0FA09040000010301010009211124
:1003F00001000122400007058103080001090401F2
:10040000000203000000092111010001222200075F
:1004100005820320000107050303200001090402EF
:10042000000103000000092111010001226D0007F5
:1004300005840320000112010002000000084600AC
:1004400048030200010203011C03760069006100F9
:100450006C003A006600360034006300320062002F
:100460003300630000000C035300430048004400C5
:100470004200000012037700610074006500720002
:10048000760065007200000004030904000000000B
:10049000000000000000000000000000000000005C
:1004A000000000000000000000000000000000004C
:1004B0007E0F00D4FFFFFFC700000078000000009F
:1004C000000000002A2B28000000000000000000AF
:1004D0000000000000000029000000002C1E342055
:1004E000212224342627252E362D3738271E1F207B
:1004F0002122232425263333362E37381F040506C0
:100500000708090A0B0C0D0E0F1011121314151603
:100510001718191A1B1C1D2F3130232D3504050601
:100520000708090A0B0C0D0E0F10111213141516E3
:100530001718191A1B1C1D2F3130354C11241FBEE2
:10054000CFEFDAE0DEBFCDBF04B603FE18C0809166
:10055000E9049091EA04A091EB04B091EC04873097
:10056000904BA740B04B59F41092E9041092EA0462
:100570001092EB041092EC04E0E0F8E3099511E02E
:10058000A0E0B1E0EEE1F3E602C005900D92AE3CD2
:10059000B107D9F724E0AEECB1E001C01D92A93E4D
:1005A000B207E1F70E945F270C9462310C940000BF
:1005B000E8EDF0E080818E7F80831092E20010925F
:1005C000DA001092E100A0EEB0E08C9181608C9393
:1005D00080818F77808319BCA7EDB0E08C918E7FEE
:1005E0008C9380818F7E80831092B6040895209131
:1005F000E4003091E50095E6A9012091EC00822FFE
:10060000817020FF06C08091E80080FF06C080E076
:1006100008952091E80022FD1AC08091DB04882310
:1006200089F0853089F08091EB0085FD0FC0209125
:10063000E4003091E50042175307F9F29150E1F6DA
:1006400084E0089582E0089583E0089581E00895AC
:10065000EF92FF920F931F93CF937C018B010E9427
:10066000F702C82F811117C08091E80085FD0BC0EB
:100670008091E8008E778093E8000E94F70288233B
:1006800099F3C82F08C0F70181917F018093F10091
:100690000150110949F78C2FCF911F910F91FF90B5
:1006A000EF9008958091DD0487FF13C08091E800EA
:1006B00082FF06C08091E8008B778093E80004C039
:1006C0008091DB048111F2CF08958091DB048823AF
:1006D000D9F38091E80080FFF8CF8091E8008E7711
:1006E000ECCF982F9093E900242F762F50E08917B4
:1006F00031F07091EC002091ED005091F00021FD5F
:1007000007C09F5F973071F78093E90081E00895FB
:100710003091EB003E7F3093EB003091ED003D7F58
:100720003093ED003091EB0031603093EB0070932B
:10073000EC002093ED005093F0002091EE0027FD97
:10074000E0CF80E00895B0E0A0E0E9EAF3E00C94A7
:100750008330C8EDD0E088818F7E8883E7EDF0E0BC
:1007600080818160808384E082BF81E08093B604D1
:1007700088818E7F888302EE10E0F801108210924B
:10078000DA0081EEC82ED12CF601108288818F7795
:10079000888388818068888388818F7D888319BC5D
:1007A0001092DB041092DC041092DA041092D90447
:1007B00090EEE92EF12CF70180818B7F8083888178
:1007C0008160888342E060E080E00E947103F6016E
:1007D00080818E7F8083F801808181608083808129
:1007E00088608083F70180818E7F8083888180612B
:1007F0008883CDB7DEB7E8E00C949F30FC01809190
:10080000E3049091E40486179707A0F06115710541
:1008100029F49091E8009E779093E80090E06115AC
:10082000710551F4911108C08091E80082FF34C035
:1008300080E00895BC01F2CF8091DB048823C1F1F0
:100840008530C1F18091E80083FD30C08091E800DF
:1008500082FDEACF8091E80080FFE1CF8091F30034
:100860002091F200382F6115710519F028303105FB
:1008700058F091E02830310509F090E02091E8002F
:100880002E772093E800CBCF81918093F1006150C7
:1008900071092F5F3F4FE7CF8091DB04882341F040
:1008A000853041F08091E80083FFBECF81E008955C
:1008B00082E0089583E00895089508958091B80432
:1008C00008959C014FB7F8948091AD049091AE04C7
:1008D000A091AF04B091B0044FBF821B930B089559
:1008E0002FB7F8946091AD047091AE048091AF047D
:1008F0009091B0042FBF08952FB7F8948091AD0464
:100900009091AE04A091AF04B091B0042FBF0895B0
:10091000209116012223C1F02091B10427FF14C0B9
:10092000E62FE695E695E695EE31F8F4E80FF92F17
:10093000F11D677021E030E001C0220F6A95EAF7EF
:100940008281822B82830895FC0132962FEF30E062
:100950004191641751F02F3F19F4411101C0232F29
:100960003F5F3630A9F72F3F09F40895820F911D9C
:1009700027FD9A95FC01628308952091AA04309185
:10098000AB042817390771F09093AB048093AA0445
:10099000E091A804F091A904309721F00084F1853A
:1009A000E02D099508952091A6043091A7042817F9
:1009B000390771F09093A7048093A604E091A804EE
:1009C000F091A904309721F00680F781E02D099578
:1009D0000895E091A804F091A904309729F00190BE
:1009E000F081E02D0995089580E00895CF93DF937D
:1009F000EC0140919B0450919C0460919D04709186
:100A00009E042FB7F8948091AD049091AE04A0910C
:100A1000AF04B091B0042FBF841B950BA60BB70B8E
:100A2000843F9140A105B10518F580919B049091F8
:100A30009C04A0919D04B0919E0480939704909390
:100A40009804A0939904B0939A0484EF91E0A0E0F5
:100A5000B0E08093930490939404A0939504B09392
:100A60009604D093A304C093A204DF91CF9108957C
:100A70000E94700460939704709398048093990483
:100A800090939A0482E390E0A0E0B0E0E2CFFC0112
:100A90008481862351F492819923B9F0692380855A
:100AA00083FF05C081E061110FC080E00895892FA8
:100AB0008F7092959F70982B862F8F7062956F70B4
:100AC000682B81E09613F1CF089581E0FDCFDC0122
:100AD00060918F0480919004962F891301C008952E
:100AE000292F30E0F901EE0FFF1FE957FB4F40813E
:100AF00051814A175B07A1F487E08A9FA0018B9F71
:100B0000500D1124415B5B4F81E0FA018483961301
:100B1000E6CF2F5F3F4F2370332720938F04089534
:100B20002F5F3F4F922F9370D8CF1092EB0310920C
:100B3000EA03EFE4F4E08581811102C01482168299
:100B4000379684E0E738F807B1F70895FA01811184
:100B500001C0FB0109950895EFE1F3E08183608313
:100B60004283339693E0EF34F907C1F70895FC010F
:100B7000EE0FFF1FE80FF91FE15EFC4F618340831A
:100B800022830895E9E1F3E0248130E1231B08F496
:100B900020E02483809118038160809318030895D6
:100BA000E9E1F3E0248130E1230F08F42FEF2483FF
:100BB0008091180381608093180308959091190320
:100BC000937071F080931A0360931B034B3A08F003
:100BD0004AEA40931C0380911803822B80931803E8
:100BE0000895E9E1F3E0438120E1421B08F440E08D
:100BF000818121E0628190E00E94DE050895E9E1B3
:100C0000F3E0438120E1420F08F44FEF818121E0BE
:100C1000628190E00E94DE050895E9E1F3E06281DF
:100C200020E1621B08F460E0818121E0438190E0D3
:100C30000E94DE050895E9E1F3E0628120E1620FA0
:100C400008F46FEF818121E0438190E00E94DE058E
:100C50000895E9E1F3E0818121E0438162818850D8
:100C6000990B0E94DE050895E9E1F3E0818190E0AF
:100C700021E04381628108960E94DE0508959091EB
:100C80001903937061F081110BC094609093190364
:100C90001092120180911803862B809318030895F7
:100CA000873010F09861F2CF880F880F982BEECF25
:100CB0008091190386958695815009F486E061E05C
:100CC0000E943F06089580911903869586958F5F4F
:100CD000873008F081E061E00E943F0608950E949D
:100CE000AC0508950E94B70508954095282F429FAE
:100CF000412D1124842F0895E82F86FDE0952E2F95
:100D00002F7086FD2F5FE695E695E695E670F0E09C
:100D1000EE58FE4F9181929F902D212D1124929596
:100D20009F702295207F922B2081920F87FD9195B5
:100D300080E8890F089530E020E0869F212D969F5E
:100D4000200D311D1124C9010895AF92BF92CF9299
:100D5000DF92FF920F931F93CF93DF93362F472F8E
:100D6000E82FF0E0E555FD4F71110FC0E4918E2F93
:100D70002E2F6E2F722FDF91CF911F910F91FF9029
:100D8000DF90CF90BF90AF900895C72FD0E024910F
:100D9000F22E022F10E056E0659FC0011124EFEF04
:100DA000F0E0BF010E942530832F90E0880F991F4B
:100DB00035E5369FD001379FB00D11248A1B9B0B60
:100DC000982F990F980F6F01CC1ADD0AC09ED001A1
:100DD000C19EB00DD09EB00D11248B2F499FA00154
:100DE0001124452F55276F01C41AD50AC09EA001B2
:100DF000C19E500DD09E500D11245F01A91AB1085B
:100E0000AC9E6001AD9ED00CBC9ED00C1124CD2CAC
:100E1000DD24EC19FD09E09FE001E19FD00DF09F7A
:100E2000D00D1124ED2F62307105A1F050F4611541
:100E3000710509F49ECF6130710581F0EB2F852F8C
:100E400098CF6430710569F080F06630710509F45F
:100E500090CFF4CFE22F2B2F8D2F8BCFE22F252F8A
:100E600088CFEB2F822F2D2F84CF2B2F8F2DE52F87
:100E700080CF80E00895F894E82FE295EF70F0E0DD
:100E800031A1282F2F7081E090E001C0880F2A95B2
:100E9000EAF7982F9095932391A392A1892B82A38F
:100EA000789408959091B10492FF06C0282F28717C
:100EB0002830F9F4877F846093FF06C0282F2871BB
:100EC0002831F1F4877E84612091B20420FF06C0AE
:100ED000382F38713830D9F4877F816021FF06C000
:100EE000282F28712831D1F4877E816194FD877E77
:100EF0000895282F24712430F9F68B7F8860DCCF89
:100F0000282F2471243101F78B7E8861DDCF382FA3
:100F10003171313019F78E7F8860E0CF282F217131
:100F2000213121F78E7E8861E1CFCF93DF93EC01F1
:100F300082389105B1F108F040C08133910509F480
:100F40009DC048F58932910509F48DC08A9709F44E
:100F50009CC0C11522E5D20708F0BDC0C11531E51E
:100F6000D30708F025C1C83ED10508F0A3C0C13E93
:100F7000D10588F5C83AD10508F08EC0C53AD1052B
:100F800008F0F6C0C130D10531F1209721F1C4300D
:100F9000D10508F545C08533910509F45FC0C997AF
:100FA000C1F68091B104837009F037C18091B20419
:100FB00083FF11C0C9E2D0E00EC0833E910599F1D4
:100FC00070F4803E910501F1823E910511F6809109
:100FD000B10482FD21C0CE01DF91CF910895863EFC
:100FE000910561F1873E910571F1843E910509F00B
:100FF000B0CF8091B20481FFEECF8091B104C7EEF3
:10100000D0E084FD0DC0E7CF8091B10480FD33C0F6
:101010009091B20490FFDFCFC3EED0E084FFDBCF2E
:10102000D0E0C0E0D8CF8091B10482FDF3C09091B0
:10103000B20490FDF2C084FFCECFF2CF8091B10414
:1010400083FDDDCFC8CF8091B10483FDE9C09091CD
:10105000B20491FFF0CFC4EED0E0BDCF8091B104D7
:1010600085FFB9CFA7CF8091B10485FDDCC0809109
:10107000B20483FFB0CFC9E3D0E0ADCF8091B1041B
:1010800086FFA9CFCAE2D0E0A6CF8091B10486FF47
:10109000A2CFC1E3D0E09FCFCF3BD10508F6C85A1D
:1010A000D0E0CC0FDD1FCB5DDE4F0990D881C02D85
:1010B000D46491CFC11540E5D40708F064C0C115D0
:1010C00080E4D80708F05CC0CE019A9581159F4155
:1010D00008F481CFA5CFC11536E5D30718F5C115A2
:1010E00045E5D40708F07DC0C11584E5D80708F0B0
:1010F00073C09C2F969596959E0123703327C1153A
:10110000D34508F45AC0C1E0D0E002C0CC0FDD1FC7
:101110002A95E2F730E2939FC0011124C82BD92B06
:10112000DA6859CFC1158AE5D80778F4C11529E5E1
:10113000D20708F061C0C11538E5D30708F470CFB5
:10114000DC2FCC27C06FD06A46CFCE0190568115D8
:10115000904208F065CF8D2F8F710E94520790E06A
:10116000982F882788279F719C012C2BE90142C06A
:10117000C55AD0E0CE5DDE4FC881D0E0D0642BCF21
:10118000DF70D06A28CF2C2F26952695237080E219
:10119000289F900111248C2F8370C1E0D0E002C001
:1011A000CC0FDD1F8A95E2F7C22BD32BDD6813CF5E
:1011B000DC2FCC27C16FD06A0ECFC1E0D0E002C0D7
:1011C000CC0FDD1F2A95E2F720E2929FC001112487
:1011D000C82BD92BDC68FFCEDC2FCC27C46FD06A9C
:1011E000FACE8C2F0E945207C82FD0E0DC2FCC27DC
:1011F000CC27DF71D062EFCE8C2F8F700E94520708
:1012000034E0D695C7953A95E1F7CF709C2FEC0165
:10121000D069E1CEC2EED0E0DECEC0EED0E0DBCED3
:10122000C6EED0E0D8CEC5E3D0E0D5CE8091700236
:10123000882331F01092700210926F0210926E02A9
:101240000895809590916D02982390936D02089572
:1012500010924C0210924B0210924A020895909103
:1012600016019923D1F09091B10497FF16C0E82F91
:10127000E695E695E695EE31E0F4F0E0E053FE4FBA
:10128000282F277081E090E001C0880F2A95EAF7A7
:1012900080959281892382830895E2EDF1E0919116
:1012A000891303C0DF0111971C9291E0E83DF90713
:1012B000B1F708958091490290910802981301C0F6
:1012C00008958F5F8770FACFA82FA77023E09695B7
:1012D00087952A95E1F7FC01EE0FFF1FE80FF91F34
:1012E000E60FF71F50E040E080E0219130E00A2E49
:1012F00002C0369527950A94E2F721703327042E11
:1013000001C0220F0A94EAF7822B4F5F5F4F4330F0
:10131000510559F70895903FC9F0943080F4853015
:10132000A8F4282F30E067EF71E0A901E5E09E9F67
:10133000400D511D1124CA010E94640908959C5F4B
:10134000923020F464EF71E090E0F6CF80E00895F1
:10135000262F277091E001C0990F2A95EAF723E024
:10136000769567952A95E1F7FB01EE0FFF1FE60FD3
:10137000F71FE40FF51F50E040E0682F70E0819107
:10138000DF0111979B01042E02C0369527950A9420
:10139000E2F7217021952827292328272C934F5FD6
:1013A0005F4F4330510559F70895282F862F903FFE
:1013B00079F0943070F4253058F4622F70E025E015
:1013C000929F600D711D112447EF51E00E94A80902
:1013D00008959C5F9230E0F7622F70E044EF51E097
:1013E000F5CF982F92959F7011F0892F94E0282FB8
:1013F0002695269511F09E5F822F869509F09F5FB6
:10140000892F08959C013A9521153F4150F5FC0123
:10141000EE27F170BC0166277270AC01442754704E
:101420009C012227387094FF0EC080E1EF2B09F455
:1014300080E0672B09F08062452B09F08064232B44
:1014400089F08068089581E0EF2B09F480E0672B34
:1014500009F08260452B09F08460232B19F0886025
:10146000089580E008958093B3047093B504609369
:10147000B4048091DB048430F9F48093E9008FEFA9
:101480009091E800815095FD06C095ED9A95F1F791
:1014900000008111F5CF8091E80085FF0DC050E07C
:1014A00040E063E070E083EB94E00E9428038091C9
:1014B000E8008E778093E8000895BC0184E00E94E4
:1014C000330A0895BC0183E00E94330A0895CF9344
:1014D000DF93EC01809116018823B1F18091B10472
:1014E00087FF32C060E284E08093E9008FEF909143
:1014F000E800815095FD06C095ED9A95F1F7000042
:101500008111F5CF8091E80085FF1BC08091160105
:1015100070E050E040E0811104C050E040E068E03D
:1015200070E0CE010E9428038091E8008E778093BE
:10153000E80080E2FE01A9EBB4E001900D928A95EB
:10154000E1F7DF91CF91089568E081E0CDCF81E0B0
:101550008093E00080E28093D8001092C9008FE170
:101560009EE40197F1F700C0000087E090EBDC01FA
:101570008093E9049093EA04A093EB04B093EC0405
:1015800088E19CE00FB6F894A895809360000FBEA8
:1015900090936000FFCF6E9A3EB13F7B2EB12064E6
:1015A0004FB7F8948FE193E0FC015191CF0168E0CF
:1015B0002EB9000000C057FF3EB9550F000000C013
:1015C00000C000C03EB900C06A9591F7F3E08F34C7
:1015D0009F0751F74FBF8FE594E00197F1F700C0E7
:1015E00000000895CF93DF93CFE5D1E060E0CE0116
:1015F0000E9426312196C11584E0D807B9F7DF9102
:10160000CF9108950F931F93CF93DF93142F022F41
:10161000843020F5623010F598E0899FE0011124B4
:1016200084E0689FB0011124C60FD71FC953DF4F54
:1016300082E090E0442311F090E080E0632F8C0F73
:101640009D1F0E94263183E090E0112311F081E07C
:1016500090E0602F8C0F9D1F0E942631DF91CF916B
:101660001F910F9108951F93CF93DF93122F843012
:10167000E0F46430D0F44530C0F4C42FD0E0CC0F97
:10168000DD1F9AE0699FC00DD11D112498E2899F4A
:10169000C00DD11D1124632FCE0187960E942631E3
:1016A000612FCE0188960E942631DF91CF911F9144
:1016B0000895CF93C82F6FEF811162E883E290E025
:1016C0000E9426316FEFC1116BEA84E290E00E9424
:1016D00026316FEFC1116BE985E290E00E9426315F
:1016E000CF910895A4E1B0E0E8E7FBE00C947A30F4
:1016F000A0901301B090140181E090E09093140148
:101700008093130110E000E02BEA422E23E0522EDA
:101710003DEA632E33E0732E41EB842E43E0942E9A
:1017200083EBC82E83E0D82E312C1DC00115110586
:10173000E9F4F701EE0FFF1FEC0DFD1D259134912B
:101740004E2D632D80E00E94330B8FEFE81AF80ACC
:1017500095E0E916F10451F7EAE0CE0ED11C33947E
:10176000F4E03F1649F0F12CE12CE0CF21E030E02D
:101770004E2D632D802FE7CF0115110509F46AC0A6
:1017800021E030E041E060E0802F0E94020B21E088
:1017900030E040E060E0802F0E94020B21E030E06A
:1017A00041E061E0802F0E94020B21E030E040E048
:1017B00061E0802F0E94020B0F5F1F4F0430110564
:1017C00009F0AECFCE0101967C018AE0F7011192BB
:1017D0008A95E9F707EE10E04AE050E0B801C7014A
:1017E0000E944A31065F1F4F0733F1E01F07A1F740
:1017F0008E01055F1F4F8AE0F80111928A95E9F783
:101800008FEF9FEF988B8F8787E08C8B4AE050E0BB
:1018100067E371E0C8010E944A314AE050E061E4A8
:1018200071E0C8010E944A314AE050E06BE471E087
:10183000C8010E944A314AE050E065E571E0C80104
:101840000E944A31B0921401A09213016496E1E122
:101850000C949630F2012591349141E060E080E0F3
:101860000E94020BF3012591349140E060E080E09A
:101870000E94020BEFEAF3E02591349141E061E030
:1018800080E00E94020BF4012591349140E061E078
:1018900080E090CF80E00E94590B60E086E290E00B
:1018A0000E9426310E94720B0E94F20A81E00E947F
:1018B000590B0895FF920F931F93CF93DF93F42E4C
:1018C000843070F5623060F528E0829F8001112439
:1018D00034E0639FB0011124060F171F09531F4FF7
:1018E00082E090E0442311F090E080E0800F911FAF
:1018F0000E940831C82FD0E0DC2FCC2783E090E095
:10190000FF2011F081E090E0800F911F0E940831CC
:101910009E01282BC901CDB7DEB7E5E00C94A230BB
:1019200090E080E0F8CF0F931F93CF93DF93843044
:1019300030F5643020F5453010F5C42FD0E0CC0FE1
:10194000DD1F2AE0629FC00DD11D112438E2839F64
:10195000C00DD11D1124CE0187960E940831082F99
:1019600010E0102F0027CE0188960E9408319801C0
:10197000282BC901DF91CF911F910F91089590E01D
:1019800080E0F8CF2091E8033091E903232BC9F4DC
:10199000703F39F4603FA9F48091E6039091E7032A
:1019A0000895843070F4743038F4653050F4462F64
:1019B000672F0E94930C08957D3F31F441E062301F
:1019C00040F090E080E008957C3FD9F76230C8F79E
:1019D00040E00E945A0C0895CF92DF92FF920F933D
:1019E0001F93CF93DF936C010091E5048091130363
:1019F000082BC7E0D0E010E0FC2EC8010C2E02C07E
:101A0000959587950A94E2F780FD0CC02197A0F781
:101A1000F12C8F2DDF91CF911F910F91FF90DF90CF
:101A2000CF900895B6018C2F0E94C20C0E9495079A
:101A3000019761F3EECFCF93DF93EC010E94EC0CA2
:101A4000BE010E94C20C0E949507DF91CF910895BC
:101A5000FC0183819481892B29F0808191818923E4
:101A60008F3FF1F480E008950E94950792959F7052
:101A7000963089F058F4925F9F70923098F7803FCB
:101A800019F030F4883E70F781E008959A5FF4CF42
:101A9000843F41F7F9CF883EB8F3813F19F7F4CF7F
:101AA00086819781009701F7808191810E941B0DAB
:101AB000DDCFA5E0B0E0EFE5FDE00C9488309C01BF
:101AC000FC01868197810097E1F485E0DE011196A3
:101AD00001900D928A95E1F7F901228189819A811D
:101AE000222399F0662389F00E94EC0C182F682FAE
:101AF00089819A810E94D50969817A81812F0E940A
:101B0000C20C2596E3E00C94A4300E948B09182F98
:101B1000F3CF83E290E00E940831823889F484E2B6
:101B200090E00E9408318B3A59F485E290E00E94DF
:101B3000083191E08B3909F090E0892F8170089588
:101B400080E0FCCFCF9384E090E00E940831C82F62
:101B500082E290E00E940831982F8C2FCF91089557
:101B6000AAE0B0E0E6EBFDE00C947F300AEA13E077
:101B700080EAC82E83E0D82E97E3E92EFF24F39461
:101B800027E0922E3FE9A32E33E0B32E88248394DE
:101B9000D6010D931D936D014AE050E0B701CE01CF
:101BA00001960E94F830F8013896DF01892D1D92C8
:101BB0008A95E9F789819A81D80111969C938E9331
:101BC0008F8112968C9312978D8113968C93139715
:101BD000888514968C931497898515968C93159700
:101BE0008B819C8117969C938E93169718961C92C6
:101BF00018978A8587FF3CC01E961C921E921D97DF
:101C000080FF03C0D80118968C9281FF04C0F801B0
:101C100090859260908782FF07C0D80118969C91AA
:101C20001897946018969C9383FF04C0F8019085E0
:101C30009860908784FF07C0D80118969C911897E8
:101C4000906118969C9385FF04C0F801808580629E
:101C50008087015F1F4FFAE0EF0EF11C8FE5E81659
:101C600081E0F80609F094CF2A96ECE00C949B30C2
:101C7000F801B686A586C4CFAAE0B0E0E2E4FEE0B3
:101C80000C948330EFE4F3E080E5DF011D928A9548
:101C9000E9F7EFE4F4E088E3DF011D928A95E9F7C4
:101CA0008FE4C82E83E0D82E7F0107EE10E0F70105
:101CB000D182C0824AE050E0B801CE0101960E9474
:101CC000F83088E0FE013196D60101900D928A9598
:101CD000E1F789859A85D70113969C938E93129785
:101CE000BAE0CB0ED11CE7E0EE0EF11C065F1F4FF1
:101CF0000733F1E01F07D9F62A96E8E00C949F30ED
:101D000046E050E06CE170E089E193E00E9416311A
:101D1000109218030895B0E0A0E0E1E9FEE00C9411
:101D20007B30C090B602D090B702E090B802F0903D
:101D3000B9028FB7F8944090AD045090AE04609013
:101D4000AF047090B0048FBF530142018C189D08FE
:101D5000AE08BF080E9470046093B6027093B70289
:101D60008093B8029093B902A0918D02EDE8F2E061
:101D70002A2F30E04FEFC40ED41EE11CF11CC41812
:101D8000D508E608F708A3131BC020938D023091F5
:101D90001903132F137019F0132F16951695209110
:101DA00012012130B9F12223F1F0223009F409C2E5
:101DB000233009F410C2CDB7DEB7E0E10C949730C0
:101DC000418D528D2A01712C612CC414D504E60476
:101DD000F70420F421503F5F3296D5CF480D591DAE
:101DE000528F418FF8CF10920F01609314037093BC
:101DF0001503809316039093170389E2EDE8F2E050
:101E0000AAEBB2E001900D928A95E1F781E0809310
:101E10001201D1CF90910E0181E019130BC0832FD5
:101E2000837020910D0130E091E08217130609F4D0
:101E300090E0892F81708093110180911E03909111
:101E40001001981739F08093100140E060E080E0C5
:101E50000E946F06173078F4E12FF0E0EC59FE4C49
:101E60000C946C3080911101882319F140E060E0FE
:101E700080E00E946F0680E01CC0C0910F01CC0F73
:101E8000CC0F04E00C0FF02E013110F0E0E1FE2E3B
:101E900060911A0370911B0380911C030E94A50698
:101EA000E62ED72EC82ED0E0CF1560F181E00031AC
:101EB00010F7C0910F0191E09C0F90930F018111D9
:101EC00070C182E08093120180911101811169C17A
:101ED000112309F47EC1CC0FCC0F9091E5048091C1
:101EE0001303892B0E94F109813009F45EC182300D
:101EF00009F061CFC850C53008F05DCF2BE244E84F
:101F00006AEF5AC1FE01E658FE4F84A99091100174
:101F1000892331F02C2D4E2D6D2DCE010E9472069D
:101F20002196C2CFC0910F01CC0FCC0F04E00C0F53
:101F3000F02E013110F070E1F72EE0901A03D091ED
:101F40001B03D0901C0360911D03669566956695F2
:101F500080911403909115030E949B060E947C06B9
:101F6000805887FD8195880F282F3D2D239F212D97
:101F70001124822F6E2D7D2F0E94A506E62ED72ECE
:101F8000C82ED0E0CF1508F091CFFE01E658FE4FE5
:101F900084A990911001892331F02C2D4E2D6D2DA7
:101FA000CE010E9472062196EDCFC0910F01CC0F99
:101FB000CC0F04E00C0FF02E013110F060E1F62E92
:101FC00060911D036695669521E0620F08F46FEF3E
:101FD00080911403909115030E949B06E82ED0E097
:101FE000CF1508F063CFFE01E658FE4F84A990910B
:101FF0001001892369F070911B036E2D80911C03E1
:102000000E94A506462F282F672FCE010E94720638
:102010002196E6CFC0910F01CC0FCC0F04E00C0F3E
:10202000F02E013110F050E1F52ED0901B03E0901E
:102030001C03D0911A0360911D0366956695669501
:1020400080911403909115030E949B060E947C06C8
:10205000805887FD8195880F682F2CE0629F612D45
:1020600011246D0F7D2D8E2D0E94A506E62ED72EF4
:10207000C82ED0E0CF1508F019CFFE01E658FE4F6C
:1020800084A990911001892331F02C2D4E2D6D2DB6
:10209000CE010E9472062196EDCFC0910F01CC0FA8
:1020A000CC0F04E00C0FD02E013110F040E1D42E03
:1020B00020911D0331E0230F08F42FEF30E050E0B2
:1020C00040E06FEF7FEF80E090E00E944D307901BB
:1020D000D0E0CC24C3942C2FCD1508F0E7CEFE0120
:1020E000E658FE4F84A990911001892311F1409187
:1020F000BA024150042E000C550B47FF1CC0C7010B
:1021000060911D033C2D630F08F46FEF0E949B0646
:10211000AC0160911A0370911B0380911C030E9413
:1021200075060E94A506462F282F672FCE010E9414
:1021300072062196D0CFFA01E654FD4F818928130B
:102140000AC0FA01EE0FFF1FE654FD4F818D928DFC
:102150008E159F05A8F241505109CFCFC0910F01B4
:10216000CC0FCC0F04E00C0FF02E013110F090E1F9
:10217000F92ED0E0CF1508F099CEFE01EE0FFF1F2B
:10218000EC0FFD1FED51FD4F6081718182810E9436
:10219000A506462F282F672FCE010E947206219692
:1021A000E9CF112309F407CE96CEC85022E448ECBB
:1021B00068E2C53008F0FFCD8CE090E00E94720626
:1021C000FACD10930E01832F837080930D010E942E
:1021D000CB0A83E01CCE8091180381110E94800EEF
:1021E00040911403509115036091160370911703E9
:1021F0002FB7F8948091AD049091AE04A091AF04F4
:10220000B091B0042FBF841B950BA60BB70B409762
:10221000A105B10508F4CFCD10921201CCCDE9E1B2
:10222000F3E085E080838091170190911801A091DF
:10223000190181839283A3838FE784838FEF858342
:102240000E94800E0895A4E0B0E0E9E2F1E10C9470
:10225000823019821A821B821C8283E5C82E81E09B
:10226000D82E10E000E0EE24E394F12CF6018191E9
:102270006F018F3F09F449C0F894E82FE295EF70A1
:10228000F0E021A18F70A70102C0440F551F8A956D
:10229000E2F7CA01922F982B91A392A180958923EE
:1022A00082A3789400C0E7E5F1E0B12C31E0219100
:1022B0002F3F09F476C0A22FA295AF70B0E09096A0
:1022C0008C9190E02F7002C0959587952A95E2F742
:1022D00080FD67C0832FB82A330F51E0EC35F50736
:1022E00031F7F601319780818F3F11F00E943B0753
:1022F00087EC90E00197F1F700C00000E1E0F0E02A
:10230000EC0FFD1FE00FF11FB0820F5F1F4F043075
:10231000110509F0ABCF44E050E0BE016F5F7F4F85
:1023200084E792E00E94DB30892BE9F189819A8170
:10233000AB81BC818093740290937502A093760266
:10234000B093770281E0809373020E947C049093A3
:1023500072028093710280917102909172020E94C8
:102360006104059720F144E050E064E772E089E8F9
:1023700092E00E94DB30892BF9F0809174029091F9
:102380007502A0917602B0917702809389029093B2
:102390008A02A0938B02B0938C0281E010927302A8
:1023A00007C080E098CF809173028111D4CF80E084
:1023B0002496E9E00C949E3080E0F0CFCF9380919A
:1023C0006D029091EC03892B8093D0018091700273
:1023D000882339F10E947C0420916E0230916F02B3
:1023E000821B930B8838934110F00E94160980914C
:1023F000D00190917002892B8093D00180911601B9
:10240000882309F447C08091B10487FF43C08EE15F
:10241000E2EDF1E090E0815008F03EC091110E94A1
:102420001609C0919F04C0958091D001C823809166
:10243000A004C82BC093D00140E250E06DE472E0EC
:1024400080ED91E00E94DB30892B11F180E2E0ED1C
:10245000F1E0ADE4B2E001900D928A95E1F7E091F0
:10246000A804F091A904309799F08091160188236F
:1024700049F08091B10487FF05C0C093D10186E087
:102480008093D0010280F381E02D80ED91E00995E9
:10249000CF91089586E0BCCF2191222309F4BBCFD0
:1024A0009F5FB9CF90E080E00E94D30490E080E08D
:1024B0000E94BD041092EC030E94DE1108958093E7
:1024C000E5040E94521208958091E504982F9670B9
:1024D000963021F488600E945F120895877FFBCFB9
:1024E00021E030E001C0220F8A95EAF72095809123
:1024F000E50482230E945F12089590914C0280951A
:10250000892380934C02282F277091F4282F082EBE
:10251000000C330B9217130659F09091B20492FFFE
:1025200007C08595859585950E9470120E9428099F
:102530000895CF93C091B204C2FB992790F99817E0
:1025400091F080FBC2F9C093B2046091B10484E0C1
:1025500090E00E9426316C2F82E290E00E942631AA
:1025600082E00E947D12CF91089521E030E001C009
:10257000220F8A95EAF78091E504822B0E945F1270
:1025800008959091B20492FF10C098E0899F900145
:102590001124622B60934C020E94B5120E947C04AD
:1025A00090934B0280934A0208950E94B5120895B9
:1025B000809313030E945212089510926D0280912D
:1025C0001601E2EDF1E0882361F08091B10487FF0C
:1025D00008C08EE1DF011D928A95E9F70E94521230
:1025E000089586E0F7CFAAE2B0E0E9EFF2E10C94BB
:1025F00088308DED94E02091F100DC012D93CD0128
:10260000B4E0853E9B07B9F78091DE04833009F47E
:1026100072C0B8F4813009F449C0823009F4B3C003
:102620008091E80083FF96C28091DD049091DE04E2
:102630009A3008F08FC2E92FF0E0E559FE4C0C9477
:102640006C308A3009F48EC08B3009F471C0893047
:1026500039F78091DD04813219F78091E10490917E
:10266000E204009711F00297D9F68091E800877F85
:102670008093E8008091E80082FF38C09091F300D9
:102680008091F200029731F48091F100813011F0D5
:10269000863021F48091F1008093B8048091E800A5
:1026A0008B778093E8000E945203BACF8091DD04BB
:1026B000813A09F0B5CF8091E800877F8093E800E8
:1026C0008091E1049091E204892B61F460E289EB4E
:1026D00094E070E00E94FE038091E8008B77809385
:1026E000E8009ECF60E090E080E0F3CF8091DB04D3
:1026F0008111C0CF95CF8091DD04813A09F090CF50
:102700008091E1049091E204892B09F089CF8091B6
:10271000E800877F8093E8008091E80080FFFCCF8D
:10272000809116018093F1008091E8008E77B9CFF7
:102730008091DD04813209F073CF8091E1049091A2
:10274000E204892B09F06CCF8091E800877F8093A9
:10275000E8000E9452038091DF04809316010E94DA
:10276000DD125ECF8091DD04813209F059CF809176
:10277000E800877F8093E8000E9452038091E00484
:102780008093B7044DCF8091DD04813A09F048CFA2
:102790008091E800877F8093E8008091E80080FFC7
:1027A000FCCF8091B704BECF803899F0823809F011
:1027B000D1C18091E1048F70873008F0CBC1809344
:1027C000E9008091EB0085FB882780F91092E900F1
:1027D00006C08091D9049091DA04911182609091A1
:1027E000E800977F9093E8008093F1001092F10049
:1027F0008091E8008E77AAC1882309F498C18230BD
:1028000009F0A8C18091DF0481119BC18091E1048E
:102810008F702FEF280F263008F09CC18093E900BD
:102820002091EB0020FF8DC1933031F48091EB00BB
:1028300080628093EB0085C19091EB009061909352
:10284000EB0021E030E001C0220F8A95EAF72093E7
:10285000EA001092EA008091EB008860EACF8111D3
:1028600079C11091DF041F778091E3008078812B7C
:102870008093E3008091E800877F8093E8000E94C6
:1028800052038091E80080FFFCCF8091E3008068D4
:102890008093E30082E0111183E08093DB045AC14E
:1028A0008058823008F056C12091DF043091E00456
:1028B0002C3DE3E03E07A1F583E08A838AE2898329
:1028C0004FB7F894DE01139620E03EE051E2E32F8B
:1028D000F0E050935700E49120FF03C0E295EF70C1
:1028E0003F5FEF708E2F90E0EA30C0F0C7968D9377
:1028F0009D932F5F243159F74FBF8091E800877F68
:102900008093E8006AE270E0CE0101960E94FE0327
:102910008091E8008B778093E8001CC1C096E7CFD8
:102920008091E1049091E204432F552743305105F3
:1029300009F44AC078F54130510509F485C08BE5AA
:1029400090E0EBEDF3E04230510509F003C1209136
:10295000E800277F2093E8002091E3043091E4040D
:102960008217930708F49C0140E02115310509F016
:1029700070C041116EC08091E80082FDC9CF809186
:10298000DB04882329F2853019F28091E80083FF67
:10299000F2CFBECF4132510509F447C04232510552
:1029A00009F0D8C08330910508F0D4C0FC01EE0FC7
:1029B000FF1FEF53FE4F0190F081E02D82549E4F98
:1029C000DC018C9190E01DC0332721303105E9F006
:1029D0002115310579F022303105F9F02330310528
:1029E00009F0B8C0E8E4F4E0E4918E2F90E0E8E468
:1029F000F4E007C0E8E8F4E0E4918E2F90E0E8E826
:102A0000F4E0009709F4A6C0A2CFE4E7F4E0E49173
:102A10008E2F90E0E4E7F4E0F4CFE6E6F4E0E49112
:102A20008E2F90E0E6E6F4E0ECCF8330910508F0DD
:102A300091C0880F991FFC01E953FE4F0190F0816E
:102A4000E02D89E090E083CF82E190E0E6E3F4E0DE
:102A50007ECF8091DB04882309F45ACF853009F4B6
:102A600057CF8091E80083FD53CF8091E80082FD2D
:102A700082CF8091E80080FF78CF9091F300809121
:102A8000F2002115310519F08830910550F041E030
:102A9000089709F040E08091E8008E778093E80085
:102AA00064CF44914093F100319621503109019651
:102AB000E8CF803809F04EC08091E800877F80938E
:102AC000E8008091DC048093F10092CE811142C035
:102AD0001091DF041230F0F58091E800877F809339
:102AE000E8001093DC040E945203112311F084E0EB
:102AF00005C08091E30087FDFACF81E08093DB047D
:102B000042E061EC81E00E94710342E261EC84E00A
:102B10000E94710342E261EC82E00E94710342E292
:102B200060EC83E00E9471038091DB0413C080910C
:102B3000DF04813079F481E0933009F080E0809304
:102B4000DA041092E9008091E800877F8093E80022
:102B50000E9452038091E80083FF0AC08091E80040
:102B6000877F8093E8008091EB0080628093EB0088
:102B7000AA96E3E00C94A4300E94DD122FEF84E3C8
:102B80009CE0215080409040E1F700C0000088E1C7
:102B90009CE00FB6F894A895809360000FBE9093C8
:102BA0006000FFCF882341F080959091EC0389234A
:102BB0008093EC030E94DE110895882339F09091F0
:102BC000EC03982B9093EC030E94DE110895882368
:102BD00021F00E9421090E94DE110895882339F016
:102BE00090916D02982B90936D020E94DE110895D2
:102BF000882339F19CEF980F913A28F40E942F090D
:102C00000E94DE11089590E2980F983050F487707A
:102C100091E001C0990F8A95EAF7892F0E94210956
:102C2000EFCF9BE5980F933028F490E080E00E946E
:102C3000D3040895885A873120F490E080E00E9400
:102C4000BD040895FF920F931F93CF93DF93F82E47
:102C50000091A4041091A5040115110509F449C0BF
:102C60001092A3041092A20410929F041092A00448
:102C7000D8011696CD91DC919E013A9521153F41E0
:102C800008F4D07ED1E0C11101C0D0E0D80119967E
:102C9000ED91FC911A97309731F01B966D917C91D4
:102CA00080E00995D823DD2339F08CEF8C0F813A31
:102CB00030F58C2F0E942F09FF2099F0E091A40499
:102CC000F091A504808584FD0CC08091A104882327
:102CD00041F0808191819C0121503109203B3D458B
:102CE000A0F00E94DE111092A5041092A40410928C
:102CF000A104C801CDB7DEB7E5E00C94A2300E9474
:102D0000DE118C2F0E94F815D7CF0E94F604E9CF70
:102D1000CF93C82F8823C9F18CEF8C0F813AB8F577
:102D200080911601882301F18091B10487FF1CC0B6
:102D3000EC2FE695E695E695F0E0E053FE4F8281B4
:102D400090E04C2F477021E030E002C0220F331F8B
:102D50004A95E2F782239323892B81F08C2F0E94DE
:102D60002F090E94DE110AC0E2EDF1E088ED91E04A
:102D70002191C21799F38E179F07D1F76C2F80ED21
:102D800091E00E9488040E94DE11CF91089580E2B4
:102D90008C0F883068F4C77021E030E001C0220F4A
:102DA000CA95EAF780916D02822B80936D02EBCF7A
:102DB000EBE5EC0FE33040F4F0E0EE5DFE4F808198
:102DC00090E00E94D304E1CFC85AC731F0F6EC2F4F
:102DD000F0E0EE0FFF1FEB5DFE4F808191810E94BE
:102DE000BD04D3CF1F93CF93DF93182FD0E0C0E063
:102DF000893311F4C0E5D0E0812F0E948816209716
:102E000039F4812F0E94F815DF91CF911F91089519
:102E10008FE99FE00197F1F700C000002197EFCF05
:102E20000F931F93CF93DF93C62FD42F022FFC0154
:102E300082818823A9F06093E8040E947C04909327
:102E4000E7048093E604C77081E001C0880FCA954B
:102E5000EAF70E94EE15DF91CF911F910F9108952F
:102E60008091E804681332C08091E6049091E704F1
:102E70000E946104883C910548F510E21D0FCD17B2
:102E8000B9F080E28C0F883040F4C77081E001C057
:102E9000880FCA95EAF70E94E715183048F481E0D8
:102EA0009D2F977001C0880F9A95EAF70E94EE1542
:102EB000802F0E94F216183070F6D77081E001C0A2
:102EC000880FDA95EAF70E94E715C5CFC77081E051
:102ED00001C0880FCA95EAF7F6CFB0E0A0E0E3E7BB
:102EE000F7E10C948130EC018AE0A82E288122239E
:102EF00009F48FC02130C9F599818A81913021F47C
:102F000022960E94F21605C0923029F422960E9461
:102F100088162196EBCF933021F422960E94F81563
:102F2000F8CF943011F02196F4CF229630E020E0D3
:102F3000AE014F5F5F4F8053990B8A30910550F07F
:102F40002150310930F38FE99FE00197F1F700C07C
:102F50000000F6CFA29EB001A39E700D11249C012B
:102F6000260F371F8981EA01E3CFE22FF0E0E45416
:102F7000FB4FB490822F86958695869590E0FC0154
:102F8000E455FB4FE4902770F12C022E02C0F5941B
:102F9000E7940A94E2F731E0E322FF24FC01E456CF
:102FA000FB4FC490D12C022E02C0D594C7940A9432
:102FB000E2F731E0C322DD24FC01E457FB4F04912A
:102FC00010E002C0159507952A95E2F701701127C8
:102FD000E114F10419F081EE0E948816C114D104A5
:102FE00019F086EE0E9488168B2D0E94F216C114ED
:102FF000D10419F086EE0E94F815E114F10419F0DD
:1030000081EE0E94F8150115110509F482CF8CE2BA
:1030100078CFCDB7DEB7EAE00C949D30CF93DF9345
:10302000EC010E94020A9E01205E31092830310520
:1030300010F0209741F40E94EE158C2F0E94881604
:10304000DF91CF9108950E94DD15F7CF90E080E0E9
:103050000E941031883E9E4F19F40E94890D0895F8
:1030600080E0089568EE7EEF90E080E00E944431B9
:1030700060E082E090E00E94263160E083E090E032
:103080000E9426311092130360E084E090E00E94D9
:10309000263164E082E290E00E94263160E085E023
:1030A00090E00E94263160E086E090E00E942631A8
:1030B0006FEF87E090E00E94263140E050E0BA01D7
:1030C00088E090E00E94383160E08DE090E00E945E
:1030D000263140E050E0BA0188E190E00E943831AA
:1030E00060E087E190E00E94263140E050E0BA01C4
:1030F0008CE190E00E94383170E060E080E290E086
:103100000E94443140E050E0BA0188E190E00E9422
:10311000383180E00E94590B0E944A0C40E050E098
:10312000BA018FE090E00E94383140E050E0BA01EF
:1031300083E190E00E9438310895A7E0B0E0E3EA2F
:10314000F8E10C9479307C01DC0113968D919C910F
:103150001497892B39F08C9111969C9189238F3F7C
:1031600009F0E6C52796E2E10C949530C80182513A
:103170009F45409708F0BAC58FEF93E00E94083151
:103180008111A8C06EEED62ED00E0FE511E0D11041
:1031900036C019821A821B821C8299249A94680173
:1031A000EFEFCE1ADE0AC8010E94083189831A8225
:1031B000882309F48FC0813009F081C05801F2E002
:1031C000AF0EB11CC6010E940831C82E8A83882325
:1031D00009F480C0C5010E940831D82E8FEF8C0DF4
:1031E0008330D8F4580123E0A20EB11CDB82DD202D
:1031F00021F0CE0101960E946D178501D0CF0115F7
:10320000B4E01B0709F466C0C8010E9408318111AF
:1032100001C0DA940F5F1F4FBACF8BEF8C0D833054
:1032200040F5C8010396DB825C01DD2031F35801D3
:1032300034E0A30EB11C0E9408318C838823E9F28C
:103240000B811C8101304FEF140710F0102F002765
:1032500056E0C51651F087E0C81619F0C8010E9463
:10326000D125C8010E949925C8CFC8010E94D12547
:10327000C4CF94E0C912C1CF5801A4E0AA0EB11C7A
:10328000C80103960E940831DD2021F1882311F145
:103290008150990B989E9001999E300D1124ED2D2F
:1032A000E150FF0BCF01820F931F019708F4A5CFC8
:1032B000AFE9BFE01197F1F700C00000F6CFCE01F3
:1032C00001960E946D17560198CF81E00E94B512B9
:1032D0000E94641280914C02877009F443CFD70199
:1032E00012968C91882309F43DCF8091B20482FF1D
:1032F00039CF82E00E947D1235CF81E00E947012AA
:10330000E7CF82E0E3CF82E0F9CF81E08093000154
:10331000E1CF8095482243C5552009F46CC4109331
:10332000F1010093F0010E94700460939B0470937C
:103330009C0480939D0490939E041092A304109289
:10334000A2042DC582FB882780F96CC5552001F1A8
:10335000817068C50E94F815C7C50497813A910528
:1033600058F46A2D80ED91E00E948804552009F4FC
:1033700029C40E94DE11AECF0E94DE118FE39CE9CA
:103380000197F1F700C000008A2D0E948816EECF49
:103390009D819F5F9D831BC5FC01208131810217A8
:1033A000130709F008C4511008C41092A10480E06A
:1033B0000E94221607C4053F4CE51407C9F0A0F08F
:1033C00027E245EE66EE063F8CE5180709F03DC49E
:1033D000C7010E9410177ECF27E245EE65EEF8CFB9
:1033E00026E241EE60EEF4CF27E245EE64EEF0CF48
:1033F00026E241EE62EEECCF28E241E0EFCF053A63
:10340000FDE51F0709F438C4D0F401363DE5130784
:1034100009F432C406314CE5140709F099C58091CE
:103420006D028A7A91E009F490E09093F20169E2EA
:10343000811165E380ED91E00E9488049ACFC80174
:103440008D5A9D45039730F717C48091B10480626F
:1034500007303CE51307B9F18091B1048061083071
:103460004CE5140780F18091B10480642CC00D30CC
:103470005CE5150709F4C0C090F48091B1048E7F1B
:103480000B309CE51907F9F08091B1048C600C3089
:10349000ACE51A07C0F08091B1048D7F14C00F30E5
:1034A000BCE51B0709F4B8C008F4AAC00031FCE56C
:1034B0001F0709F4B5C08091B1048F7B01312CE561
:1034C000120709F003C48093B10400C40F3F3CE528
:1034D000130709F4B3C0A8F50A3F5CE5150709F422
:1034E00079C0C0F404319CE5190709F4B5C008F4AB
:1034F000A1C00531BCE51B0709F0E8C38091B10408
:1035000082FB992790F921E0922790FB82F990FBAA
:1035100083F9D9CF0C3FECE51E0709F475C008F418
:103520005DC00D3F2CE5120709F472C08091B20412
:1035300083600E3F3CE5130709F0C8C38093B204D3
:10354000C5C301364DE5140709F491C090F401306C
:103550008DE5180709F489C008F474C060E00230F2
:10356000ADE51A0709F0B2C38EE090E00E94263163
:10357000ADC30D3ABDE51B07E9F060F49091B104CD
:10358000892F8E7F90FF8160053AFDE51F0709F4C2
:103590009ACF9CC30E3A2DE5120751F10F3A3DE543
:1035A000130709F093C39091B204892F877F93FF8B
:1035B0008860C4CF8091B2048860C0CF8091B1048C
:1035C000826081CF8091B10484607DCF8091B1040D
:1035D000886079CF8091B2048160B0CF8091B204CD
:1035E0008260ACCF0E94DD128091B10480686BCF05
:1035F0008091B204877FA2CF8091B1048B7F63CF8B
:103600008091B104877F5FCF8091B2048E7F96CF87
:103610008091B2048D7F92CF8091B1048F7E53CF81
:103620008091B1048F7D4FCF0E94DD128091B10453
:103630008F7749CF8091B104837F45CF8091B204C9
:103640008C7F7CCF8091B204982F909591708E7F63
:10365000892B90FB81F972CF0E94DD129091B10409
:10366000892F97FB87F980582ECF61E07DCF90910D
:10367000B104892F8F7E94FF806125CF85E30DC42F
:1036800048E556E063E676E00E94A60523CE43E6D1
:1036900056E068E576E0F8CF49E256E064E376E08C
:1036A000F3CF44E356E069E276E0EECF4DE056E03A
:1036B0006BE176E0E9CF41EF55E06FEF75E0E4CFE5
:1036C00061E081E00E943F0605CE0E94DD125FEFBF
:1036D00084E39CE0515080409040E1F700C000003E
:1036E0000E94A70A8091B20482FB882780F991E0AA
:1036F00089270E949912F701868197810097C1F16D
:103700000E9495078C01F701C280B580B2943FE01A
:10371000B32280914C028770C1F0AC2CCC20B1F068
:10372000812F807F803421F080E2800F883068F024
:103730008091B20482FF09C082E00E947D128091D4
:103740004C028770AA24A3948111A12C912E9294EB
:103750002FE09222FBE0F91508F488C0E92DF0E093
:10376000EB58FE4C0C946C3081E0C3CF80E0C1CFAD
:10377000828100811181882369F0C8010E94EC0CCC
:10378000D82E682FC8010E94D509B8018D2D0E943E
:10379000C20CB6CFC8010E948B09D82EF6CF212FBC
:1037A0002F70D22E107F19F0D29490EFD922CC2016
:1037B000B9F0DD2069F080E2800F883010F001114F
:1037C00009C080916D02D82AD0926D020E94DE114C
:1037D000802F4AC08091EC03D82AD092EC03F6CF18
:1037E000802F0E94F815DD2009F440C080E2800F90
:1037F000883010F0011104C08D2D0E94210906C0EF
:10380000D0948091EC03D822D092EC030E94DE1178
:103810002DC0312F3F70D32E107F103219F0D2946B
:1038200080EFD822002381F0013009F495C0CC202C
:1038300009F49EC0BB2009F46BC0F701858180FFAD
:10384000C7CF8F70858364C08091B20482FD39C078
:10385000CC2089F1DD2039F080916D02D82AD092F8
:103860006D020E94DE1180E00E948816292D2850EA
:10387000330B2430310510F40E94E904AA20B1F082
:1038800080914C0280FD12C0D70112961C92859542
:10389000859585950E94B512C7010E949D1880915B
:1038A0004C028595859585950E94701260E0C70150
:1038B0000E94590D57CC80E00E94F815DD20B1F22E
:1038C0009BCFCC2049F1B11004C0809170028D29AA
:1038D00020C041E0B41210C082FFC8CF80917002B6
:1038E000D82AD81619F20E947C0490936F02809314
:1038F0006E02D0927002BACF55E0B512E6CF0E94A8
:1039000016099091F3018D2D892B89138093F30172
:103910008D2D0E94EE15AACFB11003C00E9416098A
:1039200012C081E0B81213C080916D028D2109F49C
:103930009DCF0E9416099091F3018D2D80958923CA
:1039400089138093F3018D2D0E94E7158FCF95E0A9
:10395000B91609F48BCFE2CFCC2029F0A5E0AB1546
:1039600008F484CFD5CFB4E0BB1508F47FCFEBCFFC
:10397000BB2049F3093349F4FFEF27EE33E0F15060
:1039800020403040E1F700C00000802F0E94F81571
:103990006DCF812F86958695837061F0813009F017
:1039A00065CFC8019370C11002C090E080E00E9412
:1039B000BD045CCFC8019370C11002C090E080E0EC
:1039C0000E94D30453CF812F837089F5C1104ECF4D
:1039D000402F429546954770440F440F802F8F70BB
:1039E000042E01C0880F0A94EAF7202F207104FFEB
:1039F00007C02FE030E001C0220F4A95EAF720957A
:103A0000169516951370123069F050F43091130327
:103A1000113029F0822B83230E94D81227CF832BC9
:103A2000822BFACF282B809113038227F5CF86951E
:103A3000CC2011F0812F8170882309F417CF402FFB
:103A4000429546954770440F440F802F8F70042E87
:103A500001C0880F0A94EAF7202F207104FF07C0E5
:103A60002FE030E001C0220F4A95EAF72095169525
:103A700016951370123069F050F43091E50411304E
:103A800029F0822B83230E945F12F0CE832B822B9E
:103A9000FACF282B8091E5048227F5CF1F70CC2028
:103AA00029F0812F0E94B512802F33CF802F0E94E2
:103AB000E715812F0E947012D9CE023F89F160F480
:103AC000003FB9F0013F81F0CC2009F464C0B1108F
:103AD0007FCE812F8F7128C0033F49F1043FA1F7AA
:103AE0008091B20482FD2FC0812F8F71CC2011F301
:103AF0001BC0CC2081F044E04B1508F4B7CE1F71F9
:103B000081E090E0012E01C0880F0A94EAF79091BD
:103B1000E5048927B8CF55E05B1508F4A7CEEFCFB1
:103B2000812F8F71C110C6CF0E94B5129FCE80E049
:103B3000CC2009F4A8CF1F7181E0012E01C0880FAD
:103B40000A94EAF7A0CFCC20C9F080914C0287708C
:103B5000843041F40E942809812F8F710E947012D5
:103B6000A12C84CE84E08B15D8F31F71812F0E9485
:103B7000B51263E0812F0E94C112F2CF94E09B1531
:103B800030F40E94280964E0812F8F71F4CF81E026
:103B90000E947D12E5CFBB2059F0093309F0F5CE24
:103BA000AFEFB7EEE3E0A150B040E040E1F7EBCE7D
:103BB000812F8F717FCF552029F0DC0118968C91D1
:103BC00085FFF5CB033FBCE51B0709F409CC08F0E2
:103BD000F2CB083DFCE51F0709F4FECB093D2CE5BF
:103BE000120709F409CC073D3CE5130771F526E2FD
:103BF00041EE61EEEDCB8091F0019091F10108175B
:103C0000190781F41092F1011092F00110929B04B7
:103C100010929C0410929D0410929E041092A30492
:103C20001092A2048091A4049091A504009751F2EF
:103C3000A8E08A16910408F0AFCB642D0E944705D6
:103C40008111C0CF81E00E942216D70112968C917B
:103C5000882309F418C11092E8040330BDE51B075E
:103C600008F0CDCB0A3FECE51E0730F4C8018250C6
:103C70009C45449708F0CECB0E94A20D9093B204CD
:103C80008093B10402314CE5140709F4CDCC08F05F
:103C90001DCC09308CE5180709F4A4CC08F0E7CB5B
:103CA0000530ACE51A0709F491CC08F0CECB03300F
:103CB000ECE51E0709F482CC08F084CC8091B104B5
:103CC000816002302CE5120709F4FDCB6091B1044C
:103CD0001091B20484E090E00E942631612F82E2CC
:103CE00090E00E9426310E94DD12F4CA0031FFE507
:103CF0001F0709F4EACA01312FE5120709F401CBC5
:103D00000F35EDE51E0709F400CB0036FDE51F0772
:103D100049F00E352DE51207F9F480910001882352
:103D200009F4F3CA1092000180E00E942216D2CA60
:103D300061E0C7010E94590D8C01D70112965C9079
:103D4000511014CA00313FE5130709F4D6CA0131F6
:103D50004FE5140709F4D7CA80910001882309F4BC
:103D600031CF480130EE831A910840907002809163
:103D7000F301482A80916D02482A48E08416910494
:103D800008F0CACA98012770332781E090E001C08B
:103D9000880F2A95EAF7552009F4BBCA482AD701AB
:103DA0008D919C910E948B0921E030E0190102C0A5
:103DB000220C331C8A95E2F7E091A404F091A5044B
:103DC000FF83EE836090F0017090F1011D822D81E0
:103DD000E22FF0E0EE0FFF1FE056FC4FC080D180D5
:103DE000C114D10409F41ECF411005C0D6011296AA
:103DF0008C918111CDCAF601838190E082219321BB
:103E0000892B09F4C5CA8085982F977009F487E03B
:103E1000F8E08F16910408F099CA552009F492CA67
:103E200086958170882309F4B3CAD601AD90BC9001
:103E30000A151B0519F4552009F4AACAEE81FF8161
:103E4000CE16DF0609F4A4CAD6011D96ED91FC91A9
:103E5000309721F08081882309F49ACA642DC60125
:103E60000E944705882309F493CA0A151B05C1F46B
:103E700001151105C9F0511019C0A614B70409F0B5
:103E800087CA512C13C00631BCE51B0709F07EC060
:103E90008091F2018111F2CB89E20E942F0969CA57
:103EA000A114B10451F7512CB12CA12C80E00E9437
:103EB0002216D092A504C092A40481E08093A104AC
:103EC000F601858180939F0451100EC0AB2861F0EC
:103ED000F601808191819C0124503109213A3105FC
:103EE00008F038CA0E942F09D6011696AD90BC90F2
:103EF000C5019A9581159F4110F4E0EEBE2277240A
:103F00007394C5010197803B9D4508F0712CD60143
:103F10001996ED91FC911A97309731F01B966D919F
:103F20007C9181E009957822772079F0F6018681ED
:103F300097810E94020A8093A004C501F8E08F16C1
:103F4000910408F00ACA0E94F6040E94DE110ECA0B
:103F50000A35EDE51E0709F407CC68F401152CE5D8
:103F6000120709F4B2CB0E3D1C4509F0C4CB0E94E8
:103F700032180E94BC150C354DE5140709F4B2CB7C
:103F800008F4F4CB073A1D45A1F3B5CB80916D023F
:103F90008272093C9CE5190709F48DCB60F5053C5C
:103FA000BCE51B0709F478CBD0F4033CFCE51F0704
:103FB00009F466CB08F06BCB023C3CE5130709F033
:103FC0009ACB8091190391E089278093190310926D
:103FD0001201809118038160809318037BC9073C0C
:103FE0004CE5140709F462CB08F45BCB4BE156E0D7
:103FF0006DE076E049CB0D3C9CE5190709F460CBF8
:10400000B8F442EC55E060ED75E00B3CBCE51B07F5
:1040100009F43ACB4FEF55E061EF75E00C3CECE56D
:104020001E0708F431CB40ED55E062EC75E02CCB77
:10403000063DFCE51F0740F461E082E00F3C2CE503
:10404000120708F43FCB46C90D35100709F442C9E1
:1040500052CBCF93DF9380910502807F09F049C056
:1040600080910202882309F444C080914902D091D2
:1040700008026091000270910102A0910302B091C8
:104080000402C62FC723D817A1F190E0109711F0B2
:10409000CF3F19F401968770F6CF9C0143E0220FC1
:1040A000331F4A95E1F7F901E75FFD4F418147135F
:1040B000F1CF40814613EECF42814111EBCF4381D6
:1040C00054814A1B5B0B483C510520F78091050247
:1040D0008F70806180930502F901E25FFD4F80815E
:1040E0008F708061808380E092E00E949D180E9422
:1040F0005A09DF91CF910895A5E1B0E0E2E8F0E23E
:104100000C9481308C0185E0F801DE01519601901C
:104110000D928A95E1F7F801E28060E0A62E62E058
:10412000B62E60910302709104026115710509F4C5
:104130005CC19091000240910102892F84238F3F3E
:1041400009F453C120813181C380D480F0900202F0
:10415000F601E61BF70BFF2009F411C1809105025F
:10416000582F507FE83CF10508F0C4C0511175C0CC
:10417000FE2C43131EC092131CC060910602709166
:104180000702F801468157816417750791F4E11021
:1041900010C08F70806180930502C5010E949D1838
:1041A00080910502F80185838F2D6596EAE00C94D5
:1041B0009D30C114D10429F0822F83238F3F09F051
:1041C0002FC180E0F82FF170DF2E80FF3CC080917E
:1041D000490240910802841315C0298B3A8B8989C2
:1041E0009A890E941B0D292F22952F702230F8F0FA
:1041F000243020F59F70F9F0F8019581907FD9F473
:10420000D12C1FC090E0FC0153E0EE0FFF1F5A9528
:10421000E1F7E75FFD4F5181351306C0508125134B
:1042200003C05281E5120FC001968770D4CF9F70F2
:1042300011F0882329F3805E883010F3C8010E94B2
:104240009D18FD2CB1CFEE2009F4AECF8091050270
:10425000816080930502F12CA7CF43131BC09213FA
:1042600019C04091060250910702F801268137815A
:104270004217530779F4E1100DC08583C8010E94ED
:104280009D1888E0F801A0E0B2E001900D928A95B7
:10429000E1F78ACFC8010E94280D882339F1EE206A
:1042A00029F1809105028032A0F020910002309126
:1042B00001023A8729871B86DD86CC868E8780910E
:1042C000060290910702988B8F87CE0109960E9473
:1042D0009D1888E0F801A0E0B2E001900D928A9567
:1042E000E1F70E942920FF24F3945ECFC8010E94C9
:1042F0009D18F9CF51110AC080E092E00E949D18EC
:1043000088E0F50111928A95E9F7A5CF431318C00B
:10431000921316C04091060250910702F8012681BF
:1043200037814217530761F4E1100AC08583C80141
:104330000E949D1888E0F50111928A95E9F734CF23
:10434000C8010E94280D882389F2EE2079F280911D
:104350000502803208F4BDCF2091000230910102A5
:104360003A8329831B82DD82CC828E838091060270
:104370009091070298878F83CE010196A8CFE83CE1
:10438000F105C0F6FE2CEE2009F4B0CF43131FC098
:1043900092131DC02091060230910702F801868118
:1043A00097812817390799F49091050290FD69CFFC
:1043B000907F09F466CF809105028583903F09F4D0
:1043C0005DCF982F907F905F8F70892B56CFC8015B
:1043D0000E94280D81117DCF80910502816080931C
:1043E0000502C8010E949D18DFCEEE2009F47ECFA1
:1043F000C8010E94280DF82E882309F477CF88E0A1
:10440000F801A0E0B2E001900D928A95E1F7809169
:104410000002909101020E941B0D0E942920C4CE2F
:1044200081E08E25CFCEA0E1B0E0E9E1F2E20C948C
:10443000893029873A874B875C876D877E878F878E
:10444000988BCE0109960E947C20811112C088E0D1
:10445000FE013996DE01119601900D928A95E1F7E1
:104460008C859D85892B29F089859A8589238F3FA5
:1044700081F58091490290910802891317C06096D6
:10448000E2E00C94A53093E0AA0FBB1F9A95E1F7E8
:10449000A75FBD4F98E0FE01319601900D929A956D
:1044A000E1F7809308020E945A09E3CFB8E08B9F9E
:1044B000C0011124875F9D4F0E947C208823F9F260
:1044C0008091490290E00196877099278093490274
:1044D000D0CFA0910802B0E0CD0101968770992756
:1044E000209149022817190671F60E94DD121092D8
:1044F00008021092490288E0E0E0F2E0DF011D923C
:104500008A95E9F7B6CF0F931F93CF93DF938091EE
:10451000EE03E091ED03CCE081111AC0DF91CF9161
:104520001F910F910895D1E0DE0FD093ED030E2F70
:1045300010E0EC9FF0011124E151FC4F8381948144
:10454000892B29F08081918189238F3F51F4ED2FB0
:104550008091EE03E81738F31092EE031092ED030A
:10456000DDCFC09FD001C19FB00D1124A151BC4F20
:1045700016968D919C911797892B29F418968D91F9
:104580009C91019651F42081318142815381648153
:104590007581868197810E941322C09FF001C19F7F
:1045A000F00D1124E151FC4F148213821092EC03A0
:1045B000CECF109292041092910410921501809126
:1045C000900480938F040E9495050E948322089591
:1045D000B0E0A0E0EEEEF2E20C947A30C0918F04ED
:1045E00097E0892E01E010E02CE0322E3EEF932E72
:1045F00044244394809190048C1309C00E94832228
:104600000E949505CDB7DEB7E1E10C949630D0E07D
:10461000FE01EE0FFF1FE957FB4F80819181889EBD
:10462000D001899EB00D1124A15BBB4F14962C9133
:104630001497211158C05090EE03EFEEF3E030E0F4
:1046400020E0712C5D01251508F04BC0E284F38455
:10465000D501CD90DC906FEF7FEF612C462D50E0BF
:10466000DA01AA0FBB1FAC0DBD1D0D90BC91A02D92
:10467000109731F0EA16FB0609F4BA016394EECF05
:104680006F3F7607A9F1D80102C0AA0FBB1F6A9538
:10469000E2F77A2AB801062C02C0660F771F0A9447
:1046A000E2F7AB014150510974161506F9F4329E38
:1046B000F001339EF00D1124E151FC4F889ED00192
:1046C000899EB00D1124A15BBB4F12962D913C9198
:1046D00013973783268390829182918780871596DE
:1046E0004C920E9467052196C37084CF1482138276
:1046F0002F5F3F4F3C96A7CFA9E1B0E0E2E8F3E29D
:104700000C947930498B5A8B6B8B7C8B8D8B611120
:104710001092EC031D861E861F86188A85E0FE0116
:104720007196DE01199601900D928A95E1F78091BC
:10473000B20482FF1CC00E947C0420914A02309186
:104740004B02821B930B8838934120F080914C02DE
:1047500082FFEBC10E947C0420916E0230916F02B7
:10476000821B930B8838934110F00E9416098C85A8
:104770009D85892B31F089859A8589238F3F09F0A2
:10478000C0C129853A854B855C856D857E858F8581
:1047900098890E941322C3C048EFC4164CE5D40682
:1047A00029F4882379F00E94D922EBCF69EFC6164D
:1047B0006CE5D60639F4882329F080911501811122
:1047C000F2CFAFC10FE414E0E12CB12CA12C88246E
:1047D0008394912C2EEF522E44244394F80140816F
:1047E000518166246A94762C20E0822F90E0FC01AF
:1047F000EE0FFF1FE40FF51F6081718161157105D8
:1048000031F0C616D70609F43C012F5FEECFF12C2C
:10481000FFEF6F167F0609F444C0F8014481F09061
:1048200015018F2D411180E0F82FF170FF2EF80156
:10483000258086819B85992309F4F2C0FF2009F425
:10484000EFC0211014C0A401062C01C0440F0A942B
:10485000EAF7842B86838091EA039091EB03C29759
:1048600030F462E370E07093EB036093EA03C401F9
:1048700002C0880F991F2A95E2F70197F801268157
:104880002817190671F48091910490919204009771
:1048900009F449C00E946104C39708F444C0F801B8
:1048A0004482EF28FFEFAF1ABF0A095F1F4F28E0CD
:1048B000A216B10409F092CF8B85882309F40CC1AC
:1048C000EE2009F409C10E947C0490939204809325
:1048D00091048091EE03883010F591E0980F909349
:1048E000EE0398E0FE013996DE01119601900D92DB
:1048F0009A95E1F73CE0839FC001112481519C4FC0
:1049000028E0FE013196DC0101900D922A95E1F735
:104910002FEF3FEFFC0131872087D386C28669964F
:10492000E2E10C94953080918F0450919004982F7F
:10493000F0E0E0E0851314C090938F040E171F077A
:1049400009F4AFCF90E0FC01EE0FFF1FE957FB4FDA
:10495000B182A08201968370992780939004A1CFA1
:10496000282E312CF101EE0FFF1FE957FB4F20815C
:104970003181F7E0F29FD001F39FB00D1124A15BCC
:10498000BB4F2D913C911197398F288F40E020E04B
:1049900030E0E32FF0E0EE0FFF1F688D798DE60F1A
:1049A000F71F6080718061147104E1F0F8010190DB
:1049B000F081E02DFF8BEE8B20E005C066167706B8
:1049C00009F44F2D2F5FE22FF0E0EE0FFF1F6E89ED
:1049D0007F89E60FF71F608171816115710571F79D
:1049E0003F5FD7CF4423C9F0F801231708F0FD013A
:1049F0004482E017F10721F490938F04F42E51CFF5
:104A0000981305C0EA17FB0711F49F5F937091019B
:104A10002F5F3F4F822F83708DCFF0E0E0E0F7CF24
:104A200090E0211020C0B40102C0660F771F2A95C4
:104A3000E2F79B01215031098217930731F4442397
:104A400009F448C0C5010E946705C401062C01C0D5
:104A5000880F0A94EAF7982F9095F80186818923A8
:104A60008683F22C1ECF9C01062C02C0359527951B
:104A70000A94E2F7A90141705527BC016150710900
:104A800086239723892B11F5452B01F1F8018281AB
:104A90009381892BC1F01B821C821D821E82598248
:104AA0005A820E947C048160582F9D838C83F80178
:104AB000828193818F83988729813A814B816D818F
:104AC0007E810E941322F8011582BFCFF22FF17070
:104AD0002F2EBBCF2F2CB9CF90918F0480919004B3
:104AE000981731F00E94E822EE2009F44ACE17CF41
:104AF0000E94832210929204109291040E949505C4
:104B0000F3CF61E0CE0109960E94590D6C018B85AF
:104B1000F7EFCF16FCE5DF0609F03ECE882309F457
:104B200051CE81E0809315012CCE82E00E947D124F
:104B300011CEA5E0B0E0EFE9F5E20C9487308C01EE
:104B40009093E7038093E603011580E21807C0F411
:104B5000802F0E94F815C8010E94020A9801205E69
:104B600031092830310518F00115110531F40E9482
:104B7000E7152596E4E00C94A3300E94D215F9CFF6
:104B800080EF89838A831B820E947C048160782F56
:104B90009D838C8349815A816B818D810E947C2306
:104BA000E8CFA5E0B0E0E7EDF5E20C948930909312
:104BB000E7038093E603811520E2920730F40E9418
:104BC0000E182596E2E00C94A53080EF89838A8345
:104BD00081E08B830E947C048160782F9D838C838D
:104BE00049815A816B818D810E947C23EACF1F927B
:104BF0000F920FB60F9211242F933F934F935F9311
:104C00006F937F938F939F93AF93BF93CF93DF93D4
:104C1000EF93FF93D091E900DF708091EC00C82FF3
:104C2000C17080FDC0E81092E9008091F000877F9C
:104C30008093F00078940E94F3121092E900809122
:104C4000F00088608093F000CD2BCF70C093E90016
:104C5000FF91EF91DF91CF91BF91AF919F918F9194
:104C60007F916F915F914F913F912F910F900FBE68
:104C70000F901F9018951F920F920FB60F9211244C
:104C80002F933F934F935F936F937F938F939F9354
:104C9000AF93BF93EF93FF938091E10082FF09C030
:104CA0008091E20082FF05C08091E1008B7F8093BC
:104CB000E1008091DA0080FF24C08091D80080FF5D
:104CC00020C08091DA008E7F8093DA008091D90035
:104CD00080FF9DC080E189BD82E189BD09B400FEED
:104CE000FDCF81E08093DB048091B604811109C07F
:104CF0000E94D8020E94A3038091E2008460809306
:104D0000E2008091E10080FF17C08091E20080FF07
:104D100013C08091E2008E7F8093E2008091E200D8
:104D200080618093E2008091D80080628093D800F7
:104D300019BC85E08093DB048091E10084FF2BC0E7
:104D40008091E20084FF27C080E189BD82E189BDB6
:104D500089B5982F917080FFFBCF8091D8008F7D0F
:104D60008093D8008091E1008F7E8093E100809154
:104D7000E2008F7E8093E2008091E2008160809368
:104D8000E2008091DC04882309F447C084E080932A
:104D9000DB048091DB048091E10083FF27C08091D8
:104DA000E20083FF23C08091E100877F8093E100D0
:104DB00082E08093DB041092DC048091E1008E7F1E
:104DC0008093E1008091E2008E7F8093E2008091E9
:104DD000E20080618093E20042E060E080E00E94B7
:104DE00071038091F00088608093F000FF91EF9153
:104DF000BF91AF919F918F917F916F915F914F91F3
:104E00003F912F910F900FBE0F901F90189519BCD6
:104E10001092DB041092B60474CF8091E30087FDFA
:104E200093E09093DB04B5CF78941F921FB61F9246
:104E300011248F939F93AF93BF938091AD04909172
:104E4000AE04A091AF04B091B0040196A11DB11DB4
:104E50008093AD049093AE04A093AF04B093B004DC
:104E6000BF91AF919F918F911F901FBE1F9018957A
:104E70001F921FB61F9211248F939F93AF93BF93DE
:104E80008091AC04811113C08091AD049091AE0467
:104E9000A091AF04B091B0044196A11DB11D8093C3
:104EA000AD049093AE04A093AF04B093B004BF914F
:104EB000AF919F918F911F901FBE1F901895CDB7F6
:104EC000DEB7CC54D1090FB6F894DEBF0FBECDBF0C
:104ED00085B7806885BF85B7806885BF84B7877FC1
:104EE00084BF0FB6F894A895809160008861809384
:104EF0006000109260000FBE80E890E00FB6F8945A
:104F000080936100909361000FBE89E397E09093D6
:104F1000CF018093CE010E943C0E0E94B00D0E94F2
:104F2000D8020E94A3038091E20084608093E20093
:104F300078948091DB048823A1F01091E9001F7020
:104F40009091EC00892F817090FD80E8182B1092D1
:104F5000E9008091E80083FD0E94F3121F70109316
:104F6000E90082E084BD93E095BD9AEF97BD809300
:104F70006E000E94890D811102C00E944A0C81E3DB
:104F80000E943B0780E30E943B0787E60E943B07A5
:104F900086E60E943B0707E511E08CE5E82E81E0FC
:104FA000F82ED8018D918D018F3F11F00E943B07A3
:104FB000E016F106B1F784E0E9E8F2E0DF01282F1E
:104FC0001D922A95E9F7E4E7F2E0DF011D928A9548
:104FD000E9F70E942618811102C00E94321882E06F
:104FE00090E00E94083180937A020E94A20D909373
:104FF000B2048093B1040E942311EFE3FCE93197DE
:10500000F1F700C000000E9423118091890280FF07
:1050100008C06FEF7FEF90E080E00E9444310E9473
:10502000A70A83E090E00E9408310E94D8121092F3
:10503000BA028FEF9FEF9093D4028093D3029093A4
:10504000D6028093D5029093D8028093D702909392
:10505000DA028093D9029093DC028093DB02909372
:10506000DE028093DD029093E0028093DF02909352
:10507000E2028093E10210928D029093A702809346
:10508000A6029093A9028093A8029093AB0280930A
:10509000AA029093AD028093AC029093AF028093EA
:1050A000AE029093B1028093B0029093B3028093CA
:1050B000B2029093B5028093B4020E942618811127
:1050C00004C00E9432180E940F1146E050E06CE1CB
:1050D00070E089E193E00E94F8301092180380910B
:1050E00019038C7F11F40E940F1182E080938302D8
:1050F00040E751E01EE6812E11E0912E02E711E01B
:10510000B401FA0121E030E08191E82EE294AFE0B1
:10511000EA22F12CD7019196BC9091978F7069018A
:1051200001C0CC0C8A95EAF79C2D90959B21919615
:105130009C93919792968C9192978C2992968C93AE
:10514000DB018D91BD01E82EE294BFE0EB22F12C52
:10515000D7019196BC9091978F70690101C0CC0CDA
:105160008A95EAF79C2D90959B2191969C93919717
:1051700092968C9192978C2992968C930E171F077A
:1051800019F6EFE8F1E03197F1F700C00000109157
:10519000830264E872E0FB018E2F861B811708F4FE
:1051A000C4C081E091E09093A9048093A80489E8A9
:1051B00092E0B4E0B80F2D96BFAF2D978091DB043D
:1051C00050E4F52E00E112E1853009F410C10E948F
:1051D00023114BE7242E42E0342E89E892E02B96EF
:1051E0009FAF8EAF2B97DC01F10191918D9122E061
:1051F000EF37F20709F405C19817B9F33AE7832EA0
:1052000031E0932EE12C2B96AEADBFAD2B97DD9008
:105210002B96BFAFAEAF2B97F10161901F016D14BC
:1052200009F403C26D242401C12C77247394862DC4
:10523000872109F4EFC1FD2CF7202596CFAE2597E5
:105240002696EFAE269781E0F11001C080E0279608
:105250008FAF27970E947C048160782F29969FAF9B
:105260008EAF299725964FAD259726965FAD269749
:1052700027966FAD279729968FAD29970E947C239B
:10528000FF2051F0D2018C91F12C8F3F29F02C9608
:105290008FAF2C97FF24F3940F2D10E080918D0297
:1052A000800F912F911D09976CF188E0A82EB12CE9
:1052B000A01AB10AB80162577D4FA5018EE892E0AD
:1052C0000E94E830B8016A567D4FA50186E992E058
:1052D0000E94E830A501440F551FB801660F771FE3
:1052E0006A557D4F86EA92E00E94E830B801625626
:1052F0007D4FA5018EE992E00E94E83088E08F1989
:1053000080938D0280918D0290E02C96EFAD2C97CA
:10531000AE2FB0E09D01220F331F22573E4FAA0F40
:10532000BB1FBD0161577E4F6FC1DA012D91AD01E9
:10533000822F82958F7090E0DC0190968C9190E0A6
:105340002F7002C0959587952A95E2F78170D40158
:105350009D914D01292F22952F7030E0D901909613
:105360002C9130E09F7002C0359527959A95E2F711
:1053700090E020FD92E0892B81930ECF8091DB0499
:10538000843029F10E948B0E1092AC04E8E1F0E029
:105390000FB6F894A895E09360000FBEF0926000FD
:1053A00083B7817F846083BF83B7816083BF789434
:1053B000889583B78E7F83BF0FB6F894A8958091A8
:1053C0006000886180936000109260000FBE809141
:1053D000DA04882361F00E942311E9E8F2E0819168
:1053E000811115C62D962FAD2D972E13F8CF8091D4
:1053F000DB04853009F4C2CF0E94DD120E94E9046B
:10540000E6CE9813FBCE0E947C048C01809178023A
:10541000909179020817190701F18FEF8FAF21964C
:105420008FAF219722961FAE22970E947C04816045
:10543000782F24969FAF8EAF24974FAD21965FAD06
:10544000219722966FAD229724968FAD24970E94C4
:105450007C2310937902009378028091A2049091AA
:10546000A304892B09F43EC04091970450919804FD
:105470006091990470919A042FB7F8948091AD04CB
:105480009091AE04A091AF04B091B0042FBF841BE3
:10549000950BA60BB70B4091930450919404609127
:1054A00095047091960484179507A607B707D0F066
:1054B0008091A2049091A3040E940E181092A3045C
:1054C0001092A204109297041092980410929904DA
:1054D00010929A04109293041092940410929504DE
:1054E0001092960480911501882301F18091910416
:1054F000909192040097D1F00E9461042091EA03F8
:105500003091EB032817390788F490918F0480912C
:105510009004981709F493C00E94E8221092EB03BC
:105520001092EA0310929204109291040E948B0E42
:10553000B12CA12C7CEF972E88248394EDEF7E2E46
:1055400080918302B81608F483C0A1100E947004F1
:105550000E94E90490918602891721F080938602C7
:105560000E9470048091DB04843009F027CE83E030
:105570008093E9008091E80082FF20CE8091E800CE
:1055800090E085FF06C00E94F702882309F42BC132
:1055900091E08091E8008B778093E800992309F4EB
:1055A0000DCE0091E8031091E903898101151105E1
:1055B00009F436C18E3F09F0EDC18A81833020F0B5
:1055C0008550833008F0E6C1EA81EE3008F0E2C190
:1055D000F0E0EF57FE4C0C946C3090E0FC01E35788
:1055E000FD4FD9015C915183DB015C9151872C9671
:1055F000BFAD2C97B18B880F991FFC01E357FD4F6E
:10560000128E118E91E0842F41E0480F9F1528F3F0
:1056100080938D02C394770CFFEF4F1A5F0A25E049
:10562000C21205CEF1013197D082E39435E0830EAA
:10563000911C54E0E512E7CD0E9470040ECF0E9449
:10564000832210929204109291040E9495056ECFCD
:105650000B2D10E0F801E059FE4F8081E82FE29514
:10566000EF70F0E0E0A1F0E08F7002C0F595E795F3
:105670008A95E2F7E170D801A259BE4F2C91A22F72
:10568000A295AF70B0E090968C9190E02F7002C020
:10569000959587952A95E2F780FDA3C080E08E2B33
:1056A000D801AC57BD4FEC919E2F9370891709F428
:1056B00096C0EE0FEE0FE82BEC93D801A459BE4F25
:1056C000CC90EF70F0E0E45AFE4FC8018F579D4F29
:1056D0007C018081D7019C91890F8C93D12C082E5D
:1056E000000C990B20E08C159D058CF1F801E15818
:1056F000FD4F80818F5F80830E947C04BDAA7EAABB
:105700008FAA8160782F99AF88AF4B2D5DEF61E054
:1057100089AD0E947C23EFE3FFE13197F1F700C0F0
:1057200000000E947C04BAAE7BAE1CAE8160782F74
:105730009EAF8DAF4B2D5DEF60E08EAD0E947C2360
:105740008FE39FE10197F1F700C0000021E0D7014E
:105750008C91082E000C990B442755274C195D0994
:10576000481759078CF1F801E158FD4F80818150AD
:1057700080830E947C04BBA69CA68DA68160782FA6
:105780009FA78EA74B2D5CEF61E08FA50E947C2325
:10579000EFE3FFE13197F1F700C000000E947C04C5
:1057A000B8AA99AA1AAA8160782F9CAB8BAB4B2D13
:1057B0005CEF60E08CA90E947C238FE39FE101975E
:1057C000F1F700C0000021E0D7018C91082E000CF9
:1057D000990BB6010E943930F7018083A22AB39455
:1057E000AFCE82E05CCF00E210E09E012F5F3F4F22
:1057F00079018091E80085FD0AC08091E8008B77EF
:105800008093E8000E94F702882399F3C1CE80912B
:10581000F100D7018D937D010150110951F7B8CEE8
:10582000893009F4F8C108F053C0843009F4FBC092
:1058300058F4823009F49DC008F0E6C0813009F4C4
:1058400094C08FEF8983A6C0863009F402C108F4A2
:10585000F5C0873009F400C1883099F78A81823415
:1058600009F4A6C108F06EC1803409F49BC18134EB
:1058700009F090C080911903982F9370C1F086951C
:10588000869590E02FE832E06BEA72E0F9013296FB
:10589000A591B491F90105911491502F412F8A17C8
:1058A0009B0739F02C5F3F4F6217730779F750E081
:1058B00040E05B834C8380911D038D8380911A03AC
:1058C0008E8380911B038F8380911C03888762C025
:1058D000803109F4D3C1E8F58D3009F49FC130F46B
:1058E0008C3009F0AECF80E18A8354C08E3009F449
:1058F00099C18F3009F0A5CF8091130190911401C7
:10590000892B09F447C08C81C82ED12C2DE1C216F9
:10591000D10408F03FC00A811B81102701271027FE
:10592000CE0101967C01C00ED11EC801815A9E4F46
:105930000C151D0579F1013AA2E01A0720F4F701D0
:1059400064810E942631FFEFEF1AFF0A0F5F1F4F9D
:10595000ECCF823109F497C108F493C1833109F483
:10596000BCC18E3F09F06DCF2FCE1A8289E08B83A8
:1059700011C08A81823009F460C3833091F1813093
:1059800009F05FCF0E9470040E9472306B837C83A9
:105990008D839E838091DB04843009F00FCC1091BD
:1059A000E9001F709091EC00892F817090FD80E8D4
:1059B000182B82E08093E9008091E80080FF0DC001
:1059C00050E040E060E270E0CE0101960E942803C2
:1059D0008091E8008E778093E8001F701093E900B3
:1059E000EDCB8091130190911401892B99F2809154
:1059F00089028B8380918A028C8380918B028D83B4
:105A000080918C028E83C6CF8A81823009F019CFB3
:105A10006B817C818D819E810E94723086E290E054
:105A20000E942631B7CF4C816B818A810E94930CF2
:105A30009827892798279E838D83ACCF2D813E811F
:105A40003227232732274C816B818A810E94330BB6
:105A5000A1CF0E94720B9ECF8A818134C9F182341A
:105A600009F098CF8D81B3E08B9F900111242E31E6
:105A700031050CF08FCF4B815C81DE011196FA016C
:105A8000EE0FFF1FE40FF51FED51FD4F70E060E0DA
:105A900090E06817790708F07DCF13969A01260FDA
:105AA000371F2031310508F075CF12962C911297CF
:105AB000208313962C911397218314962C9114977D
:105AC0002B3A08F02AEA22836F5F7F4F3396E1CFAB
:105AD0002B813C8180911903982F937021153105FA
